{
  "_format": "hh-sol-artifact-1",
  "contractName": "CrisisDEX",
  "sourceName": "contracts/CrisisDEX.sol",
  "abi": [
    {
      "inputs": [],
      "stateMutability": "nonpayable",
      "type": "constructor"
    },
    {
      "anonymous": false,
      "inputs": [
        {
          "indexed": true,
          "internalType": "address",
          "name": "owner",
          "type": "address"
        },
        {
          "indexed": true,
          "internalType": "address",
          "name": "spender",
          "type": "address"
        },
        {
          "indexed": false,
          "internalType": "uint256",
          "name": "value",
          "type": "uint256"
        }
      ],
      "name": "Approval",
      "type": "event"
    },
    {
      "anonymous": false,
      "inputs": [
        {
          "indexed": true,
          "internalType": "uint256",
          "name": "marketId",
          "type": "uint256"
        },
        {
          "indexed": false,
          "internalType": "uint256",
          "name": "amount",
          "type": "uint256"
        }
      ],
      "name": "LiquidityAdded",
      "type": "event"
    },
    {
      "anonymous": false,
      "inputs": [
        {
          "indexed": true,
          "internalType": "uint256",
          "name": "marketId",
          "type": "uint256"
        },
        {
          "indexed": false,
          "internalType": "string",
          "name": "description",
          "type": "string"
        },
        {
          "indexed": false,
          "internalType": "address",
          "name": "creator",
          "type": "address"
        },
        {
          "indexed": false,
          "internalType": "uint256",
          "name": "resolutionTime",
          "type": "uint256"
        }
      ],
      "name": "MarketCreated",
      "type": "event"
    },
    {
      "anonymous": false,
      "inputs": [
        {
          "indexed": true,
          "internalType": "uint256",
          "name": "marketId",
          "type": "uint256"
        },
        {
          "indexed": false,
          "internalType": "bool",
          "name": "outcome",
          "type": "bool"
        },
        {
          "indexed": false,
          "internalType": "uint256",
          "name": "totalPayout",
          "type": "uint256"
        }
      ],
      "name": "MarketResolved",
      "type": "event"
    },
    {
      "anonymous": false,
      "inputs": [
        {
          "indexed": true,
          "internalType": "address",
          "name": "previousOwner",
          "type": "address"
        },
        {
          "indexed": true,
          "internalType": "address",
          "name": "newOwner",
          "type": "address"
        }
      ],
      "name": "OwnershipTransferred",
      "type": "event"
    },
    {
      "anonymous": false,
      "inputs": [
        {
          "indexed": true,
          "internalType": "uint256",
          "name": "marketId",
          "type": "uint256"
        },
        {
          "indexed": false,
          "internalType": "string",
          "name": "symbol",
          "type": "string"
        },
        {
          "indexed": false,
          "internalType": "uint256",
          "name": "initialPrice",
          "type": "uint256"
        }
      ],
      "name": "RiskTokenCreated",
      "type": "event"
    },
    {
      "anonymous": false,
      "inputs": [
        {
          "indexed": true,
          "internalType": "uint256",
          "name": "marketId",
          "type": "uint256"
        },
        {
          "indexed": true,
          "internalType": "address",
          "name": "user",
          "type": "address"
        },
        {
          "indexed": false,
          "internalType": "bool",
          "name": "prediction",
          "type": "bool"
        },
        {
          "indexed": false,
          "internalType": "uint256",
          "name": "amount",
          "type": "uint256"
        }
      ],
      "name": "Staked",
      "type": "event"
    },
    {
      "anonymous": false,
      "inputs": [
        {
          "indexed": true,
          "internalType": "address",
          "name": "from",
          "type": "address"
        },
        {
          "indexed": true,
          "internalType": "address",
          "name": "to",
          "type": "address"
        },
        {
          "indexed": false,
          "internalType": "uint256",
          "name": "value",
          "type": "uint256"
        }
      ],
      "name": "Transfer",
      "type": "event"
    },
    {
      "anonymous": false,
      "inputs": [
        {
          "indexed": true,
          "internalType": "uint256",
          "name": "marketId",
          "type": "uint256"
        },
        {
          "indexed": true,
          "internalType": "address",
          "name": "user",
          "type": "address"
        },
        {
          "indexed": false,
          "internalType": "uint256",
          "name": "amount",
          "type": "uint256"
        }
      ],
      "name": "WinningsClaimed",
      "type": "event"
    },
    {
      "inputs": [],
      "name": "CREATION_FEE",
      "outputs": [
        {
          "internalType": "uint256",
          "name": "",
          "type": "uint256"
        }
      ],
      "stateMutability": "view",
      "type": "function"
    },
    {
      "inputs": [],
      "name": "LIQUIDITY_FEE",
      "outputs": [
        {
          "internalType": "uint256",
          "name": "",
          "type": "uint256"
        }
      ],
      "stateMutability": "view",
      "type": "function"
    },
    {
      "inputs": [],
      "name": "MIN_STAKE",
      "outputs": [
        {
          "internalType": "uint256",
          "name": "",
          "type": "uint256"
        }
      ],
      "stateMutability": "view",
      "type": "function"
    },
    {
      "inputs": [],
      "name": "RESOLUTION_REWARD",
      "outputs": [
        {
          "internalType": "uint256",
          "name": "",
          "type": "uint256"
        }
      ],
      "stateMutability": "view",
      "type": "function"
    },
    {
      "inputs": [
        {
          "internalType": "uint256",
          "name": "_marketId",
          "type": "uint256"
        },
        {
          "internalType": "uint256",
          "name": "_amount",
          "type": "uint256"
        }
      ],
      "name": "addLiquidity",
      "outputs": [],
      "stateMutability": "nonpayable",
      "type": "function"
    },
    {
      "inputs": [
        {
          "internalType": "address",
          "name": "owner",
          "type": "address"
        },
        {
          "internalType": "address",
          "name": "spender",
          "type": "address"
        }
      ],
      "name": "allowance",
      "outputs": [
        {
          "internalType": "uint256",
          "name": "",
          "type": "uint256"
        }
      ],
      "stateMutability": "view",
      "type": "function"
    },
    {
      "inputs": [
        {
          "internalType": "address",
          "name": "spender",
          "type": "address"
        },
        {
          "internalType": "uint256",
          "name": "amount",
          "type": "uint256"
        }
      ],
      "name": "approve",
      "outputs": [
        {
          "internalType": "bool",
          "name": "",
          "type": "bool"
        }
      ],
      "stateMutability": "nonpayable",
      "type": "function"
    },
    {
      "inputs": [
        {
          "internalType": "address",
          "name": "account",
          "type": "address"
        }
      ],
      "name": "balanceOf",
      "outputs": [
        {
          "internalType": "uint256",
          "name": "",
          "type": "uint256"
        }
      ],
      "stateMutability": "view",
      "type": "function"
    },
    {
      "inputs": [
        {
          "internalType": "uint256",
          "name": "_marketId",
          "type": "uint256"
        }
      ],
      "name": "claimWinnings",
      "outputs": [
        {
          "internalType": "uint256",
          "name": "",
          "type": "uint256"
        }
      ],
      "stateMutability": "nonpayable",
      "type": "function"
    },
    {
      "inputs": [
        {
          "internalType": "string",
          "name": "_description",
          "type": "string"
        },
        {
          "internalType": "uint256",
          "name": "_resolutionTime",
          "type": "uint256"
        }
      ],
      "name": "createMarket",
      "outputs": [
        {
          "internalType": "uint256",
          "name": "",
          "type": "uint256"
        }
      ],
      "stateMutability": "nonpayable",
      "type": "function"
    },
    {
      "inputs": [],
      "name": "decimals",
      "outputs": [
        {
          "internalType": "uint8",
          "name": "",
          "type": "uint8"
        }
      ],
      "stateMutability": "view",
      "type": "function"
    },
    {
      "inputs": [
        {
          "internalType": "address",
          "name": "spender",
          "type": "address"
        },
        {
          "internalType": "uint256",
          "name": "subtractedValue",
          "type": "uint256"
        }
      ],
      "name": "decreaseAllowance",
      "outputs": [
        {
          "internalType": "bool",
          "name": "",
          "type": "bool"
        }
      ],
      "stateMutability": "nonpayable",
      "type": "function"
    },
    {
      "inputs": [],
      "name": "emergencyWithdraw",
      "outputs": [],
      "stateMutability": "nonpayable",
      "type": "function"
    },
    {
      "inputs": [
        {
          "internalType": "uint256",
          "name": "_marketId",
          "type": "uint256"
        }
      ],
      "name": "getMarketInfo",
      "outputs": [
        {
          "internalType": "string",
          "name": "description",
          "type": "string"
        },
        {
          "internalType": "uint256",
          "name": "resolutionTime",
          "type": "uint256"
        },
        {
          "internalType": "uint256",
          "name": "totalStaked",
          "type": "uint256"
        },
        {
          "internalType": "uint256",
          "name": "yesShares",
          "type": "uint256"
        },
        {
          "internalType": "uint256",
          "name": "noShares",
          "type": "uint256"
        },
        {
          "internalType": "bool",
          "name": "resolved",
          "type": "bool"
        },
        {
          "internalType": "bool",
          "name": "outcome",
          "type": "bool"
        },
        {
          "internalType": "address",
          "name": "creator",
          "type": "address"
        },
        {
          "internalType": "uint256",
          "name": "creationTime",
          "type": "uint256"
        },
        {
          "internalType": "uint256",
          "name": "totalVolume",
          "type": "uint256"
        },
        {
          "internalType": "uint256",
          "name": "liquidityPool",
          "type": "uint256"
        }
      ],
      "stateMutability": "view",
      "type": "function"
    },
    {
      "inputs": [
        {
          "internalType": "uint256",
          "name": "_marketId",
          "type": "uint256"
        }
      ],
      "name": "getRiskToken",
      "outputs": [
        {
          "internalType": "string",
          "name": "symbol",
          "type": "string"
        },
        {
          "internalType": "uint256",
          "name": "totalSupply",
          "type": "uint256"
        },
        {
          "internalType": "uint256",
          "name": "price",
          "type": "uint256"
        },
        {
          "internalType": "bool",
          "name": "active",
          "type": "bool"
        }
      ],
      "stateMutability": "view",
      "type": "function"
    },
    {
      "inputs": [
        {
          "internalType": "address",
          "name": "_user",
          "type": "address"
        }
      ],
      "name": "getUserMarkets",
      "outputs": [
        {
          "internalType": "uint256[]",
          "name": "",
          "type": "uint256[]"
        }
      ],
      "stateMutability": "view",
      "type": "function"
    },
    {
      "inputs": [
        {
          "internalType": "uint256",
          "name": "_marketId",
          "type": "uint256"
        },
        {
          "internalType": "address",
          "name": "_user",
          "type": "address"
        }
      ],
      "name": "getUserPosition",
      "outputs": [
        {
          "internalType": "uint256",
          "name": "yesStake",
          "type": "uint256"
        },
        {
          "internalType": "uint256",
          "name": "noStake",
          "type": "uint256"
        },
        {
          "internalType": "bool",
          "name": "claimed",
          "type": "bool"
        },
        {
          "internalType": "uint256",
          "name": "lastStakeTime",
          "type": "uint256"
        }
      ],
      "stateMutability": "view",
      "type": "function"
    },
    {
      "inputs": [
        {
          "internalType": "address",
          "name": "spender",
          "type": "address"
        },
        {
          "internalType": "uint256",
          "name": "addedValue",
          "type": "uint256"
        }
      ],
      "name": "increaseAllowance",
      "outputs": [
        {
          "internalType": "bool",
          "name": "",
          "type": "bool"
        }
      ],
      "stateMutability": "nonpayable",
      "type": "function"
    },
    {
      "inputs": [],
      "name": "marketCount",
      "outputs": [
        {
          "internalType": "uint256",
          "name": "",
          "type": "uint256"
        }
      ],
      "stateMutability": "view",
      "type": "function"
    },
    {
      "inputs": [
        {
          "internalType": "uint256",
          "name": "",
          "type": "uint256"
        }
      ],
      "name": "markets",
      "outputs": [
        {
          "internalType": "uint256",
          "name": "id",
          "type": "uint256"
        },
        {
          "internalType": "string",
          "name": "description",
          "type": "string"
        },
        {
          "internalType": "uint256",
          "name": "resolutionTime",
          "type": "uint256"
        },
        {
          "internalType": "uint256",
          "name": "totalStaked",
          "type": "uint256"
        },
        {
          "internalType": "uint256",
          "name": "yesShares",
          "type": "uint256"
        },
        {
          "internalType": "uint256",
          "name": "noShares",
          "type": "uint256"
        },
        {
          "internalType": "bool",
          "name": "resolved",
          "type": "bool"
        },
        {
          "internalType": "bool",
          "name": "outcome",
          "type": "bool"
        },
        {
          "internalType": "address",
          "name": "creator",
          "type": "address"
        },
        {
          "internalType": "uint256",
          "name": "creationTime",
          "type": "uint256"
        },
        {
          "internalType": "uint256",
          "name": "totalVolume",
          "type": "uint256"
        },
        {
          "internalType": "uint256",
          "name": "liquidityPool",
          "type": "uint256"
        }
      ],
      "stateMutability": "view",
      "type": "function"
    },
    {
      "inputs": [],
      "name": "name",
      "outputs": [
        {
          "internalType": "string",
          "name": "",
          "type": "string"
        }
      ],
      "stateMutability": "view",
      "type": "function"
    },
    {
      "inputs": [],
      "name": "owner",
      "outputs": [
        {
          "internalType": "address",
          "name": "",
          "type": "address"
        }
      ],
      "stateMutability": "view",
      "type": "function"
    },
    {
      "inputs": [
        {
          "internalType": "uint256",
          "name": "_marketId",
          "type": "uint256"
        }
      ],
      "name": "pauseMarket",
      "outputs": [],
      "stateMutability": "nonpayable",
      "type": "function"
    },
    {
      "inputs": [
        {
          "internalType": "uint256",
          "name": "",
          "type": "uint256"
        },
        {
          "internalType": "address",
          "name": "",
          "type": "address"
        }
      ],
      "name": "positions",
      "outputs": [
        {
          "internalType": "uint256",
          "name": "yesStake",
          "type": "uint256"
        },
        {
          "internalType": "uint256",
          "name": "noStake",
          "type": "uint256"
        },
        {
          "internalType": "bool",
          "name": "claimed",
          "type": "bool"
        },
        {
          "internalType": "uint256",
          "name": "lastStakeTime",
          "type": "uint256"
        }
      ],
      "stateMutability": "view",
      "type": "function"
    },
    {
      "inputs": [],
      "name": "renounceOwnership",
      "outputs": [],
      "stateMutability": "nonpayable",
      "type": "function"
    },
    {
      "inputs": [
        {
          "internalType": "uint256",
          "name": "_marketId",
          "type": "uint256"
        },
        {
          "internalType": "bool",
          "name": "_outcome",
          "type": "bool"
        }
      ],
      "name": "resolveMarket",
      "outputs": [],
      "stateMutability": "nonpayable",
      "type": "function"
    },
    {
      "inputs": [
        {
          "internalType": "uint256",
          "name": "_marketId",
          "type": "uint256"
        }
      ],
      "name": "resumeMarket",
      "outputs": [],
      "stateMutability": "nonpayable",
      "type": "function"
    },
    {
      "inputs": [
        {
          "internalType": "uint256",
          "name": "",
          "type": "uint256"
        }
      ],
      "name": "riskTokens",
      "outputs": [
        {
          "internalType": "uint256",
          "name": "marketId",
          "type": "uint256"
        },
        {
          "internalType": "string",
          "name": "symbol",
          "type": "string"
        },
        {
          "internalType": "uint256",
          "name": "totalSupply",
          "type": "uint256"
        },
        {
          "internalType": "uint256",
          "name": "price",
          "type": "uint256"
        },
        {
          "internalType": "bool",
          "name": "active",
          "type": "bool"
        }
      ],
      "stateMutability": "view",
      "type": "function"
    },
    {
      "inputs": [
        {
          "internalType": "uint256",
          "name": "_marketId",
          "type": "uint256"
        },
        {
          "internalType": "bool",
          "name": "_prediction",
          "type": "bool"
        },
        {
          "internalType": "uint256",
          "name": "_amount",
          "type": "uint256"
        }
      ],
      "name": "stake",
      "outputs": [],
      "stateMutability": "nonpayable",
      "type": "function"
    },
    {
      "inputs": [],
      "name": "symbol",
      "outputs": [
        {
          "internalType": "string",
          "name": "",
          "type": "string"
        }
      ],
      "stateMutability": "view",
      "type": "function"
    },
    {
      "inputs": [],
      "name": "totalSupply",
      "outputs": [
        {
          "internalType": "uint256",
          "name": "",
          "type": "uint256"
        }
      ],
      "stateMutability": "view",
      "type": "function"
    },
    {
      "inputs": [
        {
          "internalType": "address",
          "name": "to",
          "type": "address"
        },
        {
          "internalType": "uint256",
          "name": "amount",
          "type": "uint256"
        }
      ],
      "name": "transfer",
      "outputs": [
        {
          "internalType": "bool",
          "name": "",
          "type": "bool"
        }
      ],
      "stateMutability": "nonpayable",
      "type": "function"
    },
    {
      "inputs": [
        {
          "internalType": "address",
          "name": "from",
          "type": "address"
        },
        {
          "internalType": "address",
          "name": "to",
          "type": "address"
        },
        {
          "internalType": "uint256",
          "name": "amount",
          "type": "uint256"
        }
      ],
      "name": "transferFrom",
      "outputs": [
        {
          "internalType": "bool",
          "name": "",
          "type": "bool"
        }
      ],
      "stateMutability": "nonpayable",
      "type": "function"
    },
    {
      "inputs": [
        {
          "internalType": "address",
          "name": "newOwner",
          "type": "address"
        }
      ],
      "name": "transferOwnership",
      "outputs": [],
      "stateMutability": "nonpayable",
      "type": "function"
    },
    {
      "inputs": [
        {
          "internalType": "address",
          "name": "",
          "type": "address"
        },
        {
          "internalType": "uint256",
          "name": "",
          "type": "uint256"
        }
      ],
      "name": "userMarkets",
      "outputs": [
        {
          "internalType": "uint256",
          "name": "",
          "type": "uint256"
        }
      ],
      "stateMutability": "view",
      "type": "function"
    },
    {
      "inputs": [
        {
          "internalType": "address",
          "name": "",
          "type": "address"
        }
      ],
      "name": "userTotalStaked",
      "outputs": [
        {
          "internalType": "uint256",
          "name": "",
          "type": "uint256"
        }
      ],
      "stateMutability": "view",
      "type": "function"
    },
    {
      "inputs": [
        {
          "internalType": "address",
          "name": "",
          "type": "address"
        }
      ],
      "name": "userTotalWinnings",
      "outputs": [
        {
          "internalType": "uint256",
          "name": "",
          "type": "uint256"
        }
      ],
      "stateMutability": "view",
      "type": "function"
    },
    {
      "inputs": [
        {
          "internalType": "uint256",
          "name": "_marketId",
          "type": "uint256"
        },
        {
          "internalType": "uint256",
          "name": "_amount",
          "type": "uint256"
        }
      ],
      "name": "withdrawLiquidity",
      "outputs": [],
      "stateMutability": "nonpayable",
      "type": "function"
    }
  ],
  "bytecode": "0x608060405234801561001057600080fd5b506040518060400160405280600b81526020016a21b934b9b4b9aa37b5b2b760a91b8152506040518060400160405280600681526020016543524953595360d01b81525081600390816100639190610263565b5060046100708282610263565b5050506100896100846100a760201b60201c565b6100ab565b60016006556100a23369d3c21bcecceda10000006100fd565b610348565b3390565b600580546001600160a01b038381166001600160a01b0319831681179093556040519116919082907f8be0079c531659141344cd1fd0a4f28419497f9722a3daafe3b4186f6b6457e090600090a35050565b6001600160a01b0382166101575760405162461bcd60e51b815260206004820152601f60248201527f45524332303a206d696e7420746f20746865207a65726f206164647265737300604482015260640160405180910390fd5b80600260008282546101699190610321565b90915550506001600160a01b038216600081815260208181526040808320805486019055518481527fddf252ad1be2c89b69c2b068fc378daa952ba7f163c4a11628f55a4df523b3ef910160405180910390a35050565b505050565b634e487b7160e01b600052604160045260246000fd5b600181811c908216806101ef57607f821691505b60208210810361020f57634e487b7160e01b600052602260045260246000fd5b50919050565b601f8211156101c057806000526020600020601f840160051c8101602085101561023c5750805b601f840160051c820191505b8181101561025c5760008155600101610248565b5050505050565b81516001600160401b0381111561027c5761027c6101c5565b6102908161028a84546101db565b84610215565b6020601f8211600181146102c457600083156102ac5750848201515b600019600385901b1c1916600184901b17845561025c565b600084815260208120601f198516915b828110156102f457878501518255602094850194600190920191016102d4565b50848210156103125786840151600019600387901b60f8161c191681555b50505050600190811b01905550565b8082018082111561034257634e487b7160e01b600052601160045260246000fd5b92915050565b612948806103576000396000f3fe608060405234801561001057600080fd5b50600436106102325760003560e01c80637ddced5a11610130578063b1283e77116100b8578063dd62ed3e1161007c578063dd62ed3e146105a6578063e684d718146105b9578063ec979082146105ff578063f2fde38b14610608578063fc12524c1461061b57600080fd5b8063b1283e7714610531578063cb1c2b5c1461055c578063da4473d81461056b578063db0f871d1461058b578063db2e21bc1461059e57600080fd5b80638e0ee2db116100ff5780638e0ee2db146104cc57806395d89b41146104f05780639cd441da146104f8578063a457c2d71461050b578063a9059cbb1461051e57600080fd5b80637ddced5a146103f7578063869da9db1461040a578063883c84c11461049e5780638da5cb5b146104b157600080fd5b806349a2104d116101be57806368c828e21161018257806368c828e21461037357806370a0823114610383578063715018a6146103ac578063719de1ef146103b45780637afd2ffb146103d457600080fd5b806349a2104d1461032257806352491ee61461033257806353ab431b1461034557806357bde4461461034d578063677bd9ff1461036057600080fd5b806323b872dd1161020557806323b872dd146102ae578063313ce567146102c157806339509351146102d05780633ec79193146102e3578063447da8a61461030d57600080fd5b806306fdde03146102375780630885744214610255578063095ea7b31461028357806318160ddd146102a6575b600080fd5b61023f61062e565b60405161024c9190612292565b60405180910390f35b6102756102633660046122c3565b600c6020526000908152604090205481565b60405190815260200161024c565b6102966102913660046122de565b6106c0565b604051901515815260200161024c565b600254610275565b6102966102bc366004612308565b6106da565b6040516012815260200161024c565b6102966102de3660046122de565b6106fe565b6102f66102f1366004612345565b610720565b60405161024c9b9a9998979695949392919061235e565b61032061031b3660046123da565b6108fc565b005b61027568056bc75e2d6310000081565b610320610340366004612345565b610c53565b610275601981565b61032061035b3660046123ff565b610ca7565b61027561036e366004612345565b610ea4565b6102756802b5e3af16b188000081565b6102756103913660046122c3565b6001600160a01b031660009081526020819052604090205490565b610320611134565b6102756103c23660046122c3565b600b6020526000908152604090205481565b6103e76103e2366004612345565b611148565b60405161024c949392919061242b565b61032061040536600461245c565b611257565b61047861041836600461247e565b60009182526008602090815260408084206001600160a01b0393909316845291815291819020815160808101835281548082526001830154948201859052600283015460ff16151593820184905260039092015460609091018190529093565b60408051948552602085019390935290151591830191909152606082015260800161024c565b6102756104ac3660046124a1565b61132e565b6005546040516001600160a01b03909116815260200161024c565b6104df6104da366004612345565b6116c5565b60405161024c95949392919061251a565b61023f611781565b61032061050636600461245c565b611790565b6102966105193660046122de565b6118ce565b61029661052c3660046122de565b611949565b61054461053f366004612345565b611957565b60405161024c9c9b9a99989796959493929190612552565b610275670de0b6b3a764000081565b61057e6105793660046122c3565b611a4f565b60405161024c91906125c6565b6102756105993660046122de565b611abb565b610320611aec565b6102756105b4366004612609565b611b1e565b6104786105c736600461247e565b600860209081526000928352604080842090915290825290208054600182015460028301546003909301549192909160ff9091169084565b610275600d5481565b6103206106163660046122c3565b611b49565b610320610629366004612345565b611bbf565b60606003805461063d90612633565b80601f016020809104026020016040519081016040528092919081815260200182805461066990612633565b80156106b65780601f1061068b576101008083540402835291602001916106b6565b820191906000526020600020905b81548152906001019060200180831161069957829003601f168201915b5050505050905090565b6000336106ce818585611c10565b60019150505b92915050565b6000336106e8858285611d34565b6106f3858585611dae565b506001949350505050565b6000336106ce8185856107118383611b1e565b61071b9190612683565b611c10565b60606000806000806000806000806000806000600760008e8152602001908152602001600020604051806101800160405290816000820154815260200160018201805461076c90612633565b80601f016020809104026020016040519081016040528092919081815260200182805461079890612633565b80156107e55780601f106107ba576101008083540402835291602001916107e5565b820191906000526020600020905b8154815290600101906020018083116107c857829003601f168201915b50505050508152602001600282015481526020016003820154815260200160048201548152602001600582015481526020016006820160009054906101000a900460ff161515151581526020016006820160019054906101000a900460ff161515151581526020016006820160029054906101000a90046001600160a01b03166001600160a01b03166001600160a01b031681526020016007820154815260200160088201548152602001600982015481525050905080602001518160400151826060015183608001518460a001518560c001518660e001518761010001518861012001518961014001518a61016001519b509b509b509b509b509b509b509b509b509b509b505091939597999b90929496989a50565b610904611f52565b6000831180156109165750600d548311155b61093b5760405162461bcd60e51b815260040161093290612696565b60405180910390fd5b670de0b6b3a76400008110156109855760405162461bcd60e51b815260206004820152600f60248201526e14dd185ad9481d1bdbc81cdb585b1b608a1b6044820152606401610932565b60008381526007602052604090206006015460ff16156109e15760405162461bcd60e51b815260206004820152601760248201527613585c9ad95d08185b1c9958591e481c995cdbdb1d9959604a1b6044820152606401610932565b6000838152600760205260409020600201544210610a325760405162461bcd60e51b815260206004820152600e60248201526d13585c9ad95d08195e1c1a5c995960921b6044820152606401610932565b33600090815260208190526040902054811115610a885760405162461bcd60e51b8152602060048201526014602482015273496e73756666696369656e742062616c616e636560601b6044820152606401610932565b610a93333083611dae565b60006103e8610aa36019846126c1565b610aad91906126d8565b90506000610abb82846126fa565b905080600760008781526020019081526020016000206003016000828254610ae39190612683565b909155505060008581526007602052604081206008018054859290610b09908490612683565b909155505060008581526007602052604081206009018054849290610b2f908490612683565b9091555050600085815260086020908152604080832033845290915290208415610b985781816000016000828254610b679190612683565b909155505060008681526007602052604081206004018054849290610b8d908490612683565b90915550610bd89050565b81816001016000828254610bac9190612683565b909155505060008681526007602052604081206005018054849290610bd2908490612683565b90915550505b426003820155336000908152600b602052604081208054849290610bfd908490612683565b909155505060408051861515815260208101849052339188917f740b87c8254001c5bb22c005dae213cda66458ff749a4a8b73842d576bd51ce3910160405180910390a3505050610c4e6001600655565b505050565b610c5b611fab565b600081118015610c6d5750600d548111155b610c895760405162461bcd60e51b815260040161093290612696565b6000908152600a60205260409020600401805460ff19166001179055565b610caf611fab565b600082118015610cc15750600d548211155b610cdd5760405162461bcd60e51b815260040161093290612696565b60008281526007602052604090206006015460ff1615610d395760405162461bcd60e51b815260206004820152601760248201527613585c9ad95d08185b1c9958591e481c995cdbdb1d9959604a1b6044820152606401610932565b600082815260076020526040902060020154421015610d935760405162461bcd60e51b815260206004820152601660248201527513585c9ad95d081b9bdd081e595d08195e1c1a5c995960521b6044820152606401610932565b60008281526007602090815260408083206006018054600161ffff199091166101008715150217179081905560088352818420620100009091046001600160a01b031680855292529091205415801590610dea5750815b15610e0757610e02816802b5e3af16b1880000612005565b610e51565b60008381526008602090815260408083206001600160a01b038516845290915290206001015415801590610e39575081155b15610e5157610e51816802b5e3af16b1880000612005565b60008381526007602090815260409182902060030154825185151581529182015284917f6d4d544f5a6dcf38d77a232d3ef7358625c74877a1ad954fcb507872e7a05eaf910160405180910390a2505050565b6000610eae611f52565b600082118015610ec05750600d548211155b610edc5760405162461bcd60e51b815260040161093290612696565b60008281526007602052604090206006015460ff16610f3d5760405162461bcd60e51b815260206004820152601760248201527f4d61726b6574206e6f7420796574207265736f6c7665640000000000000000006044820152606401610932565b60008281526008602090815260408083203384529091529020600281015460ff1615610f9d5760405162461bcd60e51b815260206004820152600f60248201526e105b1c9958591e4818db185a5b5959608a1b6044820152606401610932565b600083815260076020526040812060060154610100900460ff168015610fc35750815415155b15610fff576000848152600760205260409020600481015483546003909201549091610fee916126c1565b610ff891906126d8565b9050611065565b600084815260076020526040902060060154610100900460ff1615801561102a575060008260010154115b15611065576000848152600760205260409020600581015460018401546003909201549091611058916126c1565b61106291906126d8565b90505b600081116110ac5760405162461bcd60e51b81526020600482015260146024820152734e6f2077696e6e696e677320746f20636c61696d60601b6044820152606401610932565b60028201805460ff19166001179055336000908152600c6020526040812080548392906110da908490612683565b909155506110eb9050303383611dae565b604051818152339085907f5380cf6fe903b40c6d5a9e0dfbca2f3a423f0a21520b4d5947ed5169bdba946d9060200160405180910390a391505061112f6001600655565b919050565b61113c611fab565b61114660006120c4565b565b6060600080600080600a60008781526020019081526020016000206040518060a00160405290816000820154815260200160018201805461118890612633565b80601f01602080910402602001604051908101604052809291908181526020018280546111b490612633565b80156112015780601f106111d657610100808354040283529160200191611201565b820191906000526020600020905b8154815290600101906020018083116111e457829003601f168201915b50505091835250506002820154602080830191909152600383015460408084019190915260049093015460ff16151560609283015283015191830151908301516080909301519199909850919650945092505050565b61125f611fab565b6000821180156112715750600d548211155b61128d5760405162461bcd60e51b815260040161093290612696565b6000828152600760205260409020600901548111156112e75760405162461bcd60e51b8152602060048201526016602482015275496e73756666696369656e74206c697175696469747960501b6044820152606401610932565b600082815260076020526040812060090180548392906113089084906126fa565b9091555061132a9050306113246005546001600160a01b031690565b83611dae565b5050565b600042821161137f5760405162461bcd60e51b815260206004820152601760248201527f496e76616c6964207265736f6c7574696f6e2074696d650000000000000000006044820152606401610932565b3360009081526020819052604090205468056bc75e2d6310000011156113dd5760405162461bcd60e51b8152602060048201526013602482015272496e73756666696369656e742043524953595360681b6044820152606401610932565b6113f1333068056bc75e2d63100000611dae565b600d80549060006114018361270d565b9190505550604051806101800160405280600d54815260200185858080601f016020809104026020016040519081016040528093929190818152602001838380828437600092018290525093855250505060208083018690526040808401839052606084018390526080840183905260a0840183905260c084018390523360e0850152426101008501526101208401839052610140909301829052600d54825260078152919020825181559082015160018201906114bf908261278a565b5060408201516002820155606082015160038201556080820151600482015560a0820151600582015560c082015160068201805460e08501516101008087015161ffff1990931694151561ff001916949094179015159093029290921762010000600160b01b031916620100006001600160a01b03909316929092029190911790556101208201516007820155610140820151600882015561016090910151600990910155600d5460009061157390612116565b6040516020016115839190612849565b60408051601f1981840301815260a083018252600d5480845260208481018381526000868601819052670de0b6b3a76400006060880152600160808801819052938152600a9092529390208451815592519194508201906115e4908261278a565b506040828101516002830155606083015160038301556080909201516004909101805460ff191691151591909117905533600081815260096020908152838220600d805482546001810184559285529290932001555491517f069da8c9710c1600001ae111f110050f586b7fcd73d420b5eb03747f67e86d0d9161166d91899189918990612878565b60405180910390a2600d547f4f143b7e74146184b3f10a1fd94879632ca038666e4ae21ddbd9411edd86653282670de0b6b3a76400006040516116b19291906128c1565b60405180910390a25050600d549392505050565b600a60205260009081526040902080546001820180549192916116e790612633565b80601f016020809104026020016040519081016040528092919081815260200182805461171390612633565b80156117605780601f1061173557610100808354040283529160200191611760565b820191906000526020600020905b81548152906001019060200180831161174357829003601f168201915b50505050600283015460038401546004909401549293909290915060ff1685565b60606004805461063d90612633565b6000821180156117a25750600d548211155b6117be5760405162461bcd60e51b815260040161093290612696565b6000811161180e5760405162461bcd60e51b815260206004820152601760248201527f416d6f756e74206d75737420626520706f7369746976650000000000000000006044820152606401610932565b336000908152602081905260409020548111156118645760405162461bcd60e51b8152602060048201526014602482015273496e73756666696369656e742062616c616e636560601b6044820152606401610932565b61186f333083611dae565b60008281526007602052604081206009018054839290611890908490612683565b909155505060405181815282907f38f8a0c92f4c5b0b6877f878cb4c0c8d348a47b76d716c8e78f425043df9515b9060200160405180910390a25050565b600033816118dc8286611b1e565b90508381101561193c5760405162461bcd60e51b815260206004820152602560248201527f45524332303a2064656372656173656420616c6c6f77616e63652062656c6f77604482015264207a65726f60d81b6064820152608401610932565b6106f38286868403611c10565b6000336106ce818585611dae565b6007602052600090815260409020805460018201805491929161197990612633565b80601f01602080910402602001604051908101604052809291908181526020018280546119a590612633565b80156119f25780601f106119c7576101008083540402835291602001916119f2565b820191906000526020600020905b8154815290600101906020018083116119d557829003601f168201915b505050506002830154600384015460048501546005860154600687015460078801546008890154600990990154979895979496509294919360ff80831694610100840490911693620100009093046001600160a01b03169290918c565b6001600160a01b038116600090815260096020908152604091829020805483518184028101840190945280845260609392830182828015611aaf57602002820191906000526020600020905b815481526020019060010190808311611a9b575b50505050509050919050565b60096020528160005260406000208181548110611ad757600080fd5b90600052602060002001600091509150505481565b611af4611fab565b306000818152602081905260409020546005549091611b1b916001600160a01b0316611324565b50565b6001600160a01b03918216600090815260016020908152604080832093909416825291909152205490565b611b51611fab565b6001600160a01b038116611bb65760405162461bcd60e51b815260206004820152602660248201527f4f776e61626c653a206e6577206f776e657220697320746865207a65726f206160448201526564647265737360d01b6064820152608401610932565b611b1b816120c4565b611bc7611fab565b600081118015611bd95750600d548111155b611bf55760405162461bcd60e51b815260040161093290612696565b6000908152600a60205260409020600401805460ff19169055565b6001600160a01b038316611c725760405162461bcd60e51b8152602060048201526024808201527f45524332303a20617070726f76652066726f6d20746865207a65726f206164646044820152637265737360e01b6064820152608401610932565b6001600160a01b038216611cd35760405162461bcd60e51b815260206004820152602260248201527f45524332303a20617070726f766520746f20746865207a65726f206164647265604482015261737360f01b6064820152608401610932565b6001600160a01b0383811660008181526001602090815260408083209487168084529482529182902085905590518481527f8c5be1e5ebec7d5bd14f71427d1e84f3dd0314c0f7b2291e5b200ac8c7c3b925910160405180910390a3505050565b6000611d408484611b1e565b90506000198114611da85781811015611d9b5760405162461bcd60e51b815260206004820152601d60248201527f45524332303a20696e73756666696369656e7420616c6c6f77616e63650000006044820152606401610932565b611da88484848403611c10565b50505050565b6001600160a01b038316611e125760405162461bcd60e51b815260206004820152602560248201527f45524332303a207472616e736665722066726f6d20746865207a65726f206164604482015264647265737360d81b6064820152608401610932565b6001600160a01b038216611e745760405162461bcd60e51b815260206004820152602360248201527f45524332303a207472616e7366657220746f20746865207a65726f206164647260448201526265737360e81b6064820152608401610932565b6001600160a01b03831660009081526020819052604090205481811015611eec5760405162461bcd60e51b815260206004820152602660248201527f45524332303a207472616e7366657220616d6f756e7420657863656564732062604482015265616c616e636560d01b6064820152608401610932565b6001600160a01b03848116600081815260208181526040808320878703905593871680835291849020805487019055925185815290927fddf252ad1be2c89b69c2b068fc378daa952ba7f163c4a11628f55a4df523b3ef910160405180910390a3611da8565b600260065403611fa45760405162461bcd60e51b815260206004820152601f60248201527f5265656e7472616e637947756172643a207265656e7472616e742063616c6c006044820152606401610932565b6002600655565b6005546001600160a01b031633146111465760405162461bcd60e51b815260206004820181905260248201527f4f776e61626c653a2063616c6c6572206973206e6f7420746865206f776e65726044820152606401610932565b6001600160a01b03821661205b5760405162461bcd60e51b815260206004820152601f60248201527f45524332303a206d696e7420746f20746865207a65726f2061646472657373006044820152606401610932565b806002600082825461206d9190612683565b90915550506001600160a01b038216600081815260208181526040808320805486019055518481527fddf252ad1be2c89b69c2b068fc378daa952ba7f163c4a11628f55a4df523b3ef910160405180910390a35050565b600580546001600160a01b038381166001600160a01b0319831681179093556040519116919082907f8be0079c531659141344cd1fd0a4f28419497f9722a3daafe3b4186f6b6457e090600090a35050565b60608160000361213d5750506040805180820190915260018152600360fc1b602082015290565b8160005b811561216757806121518161270d565b91506121609050600a836126d8565b9150612141565b60008167ffffffffffffffff81111561218257612182612726565b6040519080825280601f01601f1916602001820160405280156121ac576020820181803683370190505b509050815b8515612239576121c26001826126fa565b905060006121d1600a886126d8565b6121dc90600a6126c1565b6121e690886126fa565b6121f19060306128e3565b905060008160f81b90508084848151811061220e5761220e6128fc565b60200101906001600160f81b031916908160001a905350612230600a896126d8565b975050506121b1565b50949350505050565b60005b8381101561225d578181015183820152602001612245565b50506000910152565b6000815180845261227e816020860160208601612242565b601f01601f19169290920160200192915050565b6020815260006122a56020830184612266565b9392505050565b80356001600160a01b038116811461112f57600080fd5b6000602082840312156122d557600080fd5b6122a5826122ac565b600080604083850312156122f157600080fd5b6122fa836122ac565b946020939093013593505050565b60008060006060848603121561231d57600080fd5b612326846122ac565b9250612334602085016122ac565b929592945050506040919091013590565b60006020828403121561235757600080fd5b5035919050565b6101608152600061237361016083018e612266565b602083019c909c525060408101999099526060890197909752608088019590955292151560a087015290151560c08601526001600160a01b031660e085015261010084015261012083015261014090910152919050565b8035801515811461112f57600080fd5b6000806000606084860312156123ef57600080fd5b83359250612334602085016123ca565b6000806040838503121561241257600080fd5b82359150612422602084016123ca565b90509250929050565b60808152600061243e6080830187612266565b60208301959095525060408101929092521515606090910152919050565b6000806040838503121561246f57600080fd5b50508035926020909101359150565b6000806040838503121561249157600080fd5b82359150612422602084016122ac565b6000806000604084860312156124b657600080fd5b833567ffffffffffffffff8111156124cd57600080fd5b8401601f810186136124de57600080fd5b803567ffffffffffffffff8111156124f557600080fd5b86602082840101111561250757600080fd5b6020918201979096509401359392505050565b85815260a06020820152600061253360a0830187612266565b6040830195909552506060810192909252151560809091015292915050565b8c81526101806020820152600061256d61018083018e612266565b604083019c909c52506060810199909952608089019790975260a088019590955292151560c087015290151560e08601526001600160a01b03166101008501526101208401526101408301526101609091015292915050565b602080825282518282018190526000918401906040840190835b818110156125fe5783518352602093840193909201916001016125e0565b509095945050505050565b6000806040838503121561261c57600080fd5b612625836122ac565b9150612422602084016122ac565b600181811c9082168061264757607f821691505b60208210810361266757634e487b7160e01b600052602260045260246000fd5b50919050565b634e487b7160e01b600052601160045260246000fd5b808201808211156106d4576106d461266d565b602080825260119082015270125b9d985b1a59081b585c9ad95d081251607a1b604082015260600190565b80820281158282048414176106d4576106d461266d565b6000826126f557634e487b7160e01b600052601260045260246000fd5b500490565b818103818111156106d4576106d461266d565b60006001820161271f5761271f61266d565b5060010190565b634e487b7160e01b600052604160045260246000fd5b601f821115610c4e57806000526020600020601f840160051c810160208510156127635750805b601f840160051c820191505b81811015612783576000815560010161276f565b5050505050565b815167ffffffffffffffff8111156127a4576127a4612726565b6127b8816127b28454612633565b8461273c565b6020601f8211600181146127ec57600083156127d45750848201515b600019600385901b1c1916600184901b178455612783565b600084815260208120601f198516915b8281101561281c57878501518255602094850194600190920191016127fc565b508482101561283a5786840151600019600387901b60f8161c191681555b50505050600190811b01905550565b664352495349532d60c81b81526000825161286b816007850160208701612242565b9190910160070192915050565b6060815283606082015283856080830137600060808583018101919091526001600160a01b039390931660208201526040810191909152601f909201601f191690910101919050565b6040815260006128d46040830185612266565b90508260208301529392505050565b60ff81811683821601908111156106d4576106d461266d565b634e487b7160e01b600052603260045260246000fdfea26469706673582212202110b2b095301b98ede51097a18e069de8e33422dd16f10e1ad37e3a0d5086a764736f6c634300081c0033",
  "linkReferences": {},
  "deployedLinkReferences": {}
}